{
  "contractName": "Organization",
  "abi": [
    {
      "constant": false,
      "inputs": [
        {
          "name": "_worker",
          "type": "address"
        },
        {
          "name": "rewardAmount",
          "type": "uint256"
        }
      ],
      "name": "rewardWorker",
      "outputs": [
        {
          "name": "success",
          "type": "bool"
        }
      ],
      "payable": false,
      "stateMutability": "nonpayable",
      "type": "function"
    },
    {
      "constant": false,
      "inputs": [
        {
          "name": "_worker",
          "type": "address"
        }
      ],
      "name": "addWorker",
      "outputs": [
        {
          "name": "success",
          "type": "bool"
        }
      ],
      "payable": false,
      "stateMutability": "nonpayable",
      "type": "function"
    },
    {
      "constant": false,
      "inputs": [
        {
          "name": "_worker",
          "type": "address"
        }
      ],
      "name": "removeWorker",
      "outputs": [
        {
          "name": "success",
          "type": "bool"
        }
      ],
      "payable": false,
      "stateMutability": "nonpayable",
      "type": "function"
    },
    {
      "constant": false,
      "inputs": [],
      "name": "deposit",
      "outputs": [
        {
          "name": "success",
          "type": "bool"
        }
      ],
      "payable": true,
      "stateMutability": "payable",
      "type": "function"
    },
    {
      "inputs": [],
      "payable": true,
      "stateMutability": "payable",
      "type": "constructor"
    },
    {
      "anonymous": false,
      "inputs": [
        {
          "indexed": false,
          "name": "_worker",
          "type": "address"
        }
      ],
      "name": "LogWorkerAdded",
      "type": "event"
    },
    {
      "anonymous": false,
      "inputs": [
        {
          "indexed": false,
          "name": "_worker",
          "type": "address"
        }
      ],
      "name": "LogWorkerDeleted",
      "type": "event"
    },
    {
      "anonymous": false,
      "inputs": [
        {
          "indexed": false,
          "name": "_worker",
          "type": "address"
        },
        {
          "indexed": false,
          "name": "_reward",
          "type": "uint256"
        }
      ],
      "name": "LogWorkerRewarded",
      "type": "event"
    },
    {
      "anonymous": false,
      "inputs": [
        {
          "indexed": false,
          "name": "amount",
          "type": "uint256"
        }
      ],
      "name": "LogDeposit",
      "type": "event"
    }
  ],
  "bytecode": "0x606060405260003411151561001357600080fd5b34600080828254019250508190555061061c806100316000396000f300606060405260043610610062576000357c0100000000000000000000000000000000000000000000000000000000900463ffffffff1680630e11959514610067578063806ad57e146100c1578063c4f987a514610112578063d0e30db014610163575b600080fd5b341561007257600080fd5b6100a7600480803573ffffffffffffffffffffffffffffffffffffffff16906020019091908035906020019091905050610185565b604051808215151515815260200191505060405180910390f35b34156100cc57600080fd5b6100f8600480803573ffffffffffffffffffffffffffffffffffffffff169060200190919050506102f8565b604051808215151515815260200191505060405180910390f35b341561011d57600080fd5b610149600480803573ffffffffffffffffffffffffffffffffffffffff16906020019091905050610445565b604051808215151515815260200191505060405180910390f35b61016b610593565b604051808215151515815260200191505060405180910390f35b60008260008173ffffffffffffffffffffffffffffffffffffffff16141515156101ae57600080fd5b8360011515600160008373ffffffffffffffffffffffffffffffffffffffff1673ffffffffffffffffffffffffffffffffffffffff16815260200190815260200160002060009054906101000a900460ff16151514151561020e57600080fd5b836000811415151561021f57600080fd5b848060005411151561023057600080fd5b8560008082825403925050819055508673ffffffffffffffffffffffffffffffffffffffff166108fc879081150290604051600060405180830381858888f19350505050151561027f57600080fd5b7f93d129201718b3e0fc9996c44810c988aeffe5f00f8861c2d928dd047ff1038a8787604051808373ffffffffffffffffffffffffffffffffffffffff1673ffffffffffffffffffffffffffffffffffffffff1681526020018281526020019250505060405180910390a1600194505050505092915050565b60008160008173ffffffffffffffffffffffffffffffffffffffff161415151561032157600080fd5b8260001515600160008373ffffffffffffffffffffffffffffffffffffffff1673ffffffffffffffffffffffffffffffffffffffff16815260200190815260200160002060009054906101000a900460ff16151514151561038157600080fd5b60018060008673ffffffffffffffffffffffffffffffffffffffff1673ffffffffffffffffffffffffffffffffffffffff16815260200190815260200160002060006101000a81548160ff0219169083151502179055507f40b320e26aa632c3cb8fa904f148873e1fafa4fea479c5274a7abe6e2b782eb384604051808273ffffffffffffffffffffffffffffffffffffffff1673ffffffffffffffffffffffffffffffffffffffff16815260200191505060405180910390a18292505050919050565b60008160008173ffffffffffffffffffffffffffffffffffffffff161415151561046e57600080fd5b8260011515600160008373ffffffffffffffffffffffffffffffffffffffff1673ffffffffffffffffffffffffffffffffffffffff16815260200190815260200160002060009054906101000a900460ff1615151415156104ce57600080fd5b6000600160008673ffffffffffffffffffffffffffffffffffffffff1673ffffffffffffffffffffffffffffffffffffffff16815260200190815260200160002060006101000a81548160ff0219169083151502179055507f0f93d535814b1b0b241024e7c0f3f19152926c916388f0604c05f120d11a59cd84604051808273ffffffffffffffffffffffffffffffffffffffff1673ffffffffffffffffffffffffffffffffffffffff16815260200191505060405180910390a18292505050919050565b600080341115156105a357600080fd5b3460008082825401925050819055507ff641ad64267ca71156d13749ad746155df3095d9afeb604fe3b53016ce5fc8ba346040518082815260200191505060405180910390a160019050905600a165627a7a7230582072b0af0d2902a0f018973bf0fa8948ae64882ee317ea540a5b0770a1141860820029",
  "source": "pragma solidity ^0.4.17;\n\ncontract Organization {\n  uint contractBalance ;\n  mapping(address => bool) workerMapping;\n\n  event LogWorkerAdded(address _worker);\n  event LogWorkerDeleted(address _worker);\n  event LogWorkerRewarded(address _worker, uint _reward);\n  event LogDeposit(uint amount);\n\n  function Organization()\n    public\n    payable\n    depositNotZero()\n  {\n    contractBalance += msg.value;\n  }\n\n  function addWorker(address _worker)\n    public\n    validWorkerAddress(_worker)\n    isNewWorker(_worker)\n    returns (bool success)\n  {\n    workerMapping[_worker] = true;\n    LogWorkerAdded(_worker);\n    return success;\n  }\n\n  function removeWorker(address _worker)\n    public\n    validWorkerAddress(_worker)\n    isExistingWorker(_worker)\n    returns (bool success)\n  {\n    workerMapping[_worker] = false;\n    LogWorkerDeleted(_worker);\n    return success;\n  }\n\n  function rewardWorker(address _worker, uint rewardAmount)\n    public\n    validWorkerAddress(_worker)\n    isExistingWorker(_worker)\n    isValidRewardAmount(rewardAmount)\n    sufficientFunds(rewardAmount)\n    returns (bool success)\n  {\n    contractBalance -= rewardAmount;\n    _worker.transfer(rewardAmount);\n    LogWorkerRewarded(_worker, rewardAmount);\n    return true;\n  }\n\n  function deposit()\n    payable\n    public\n    depositNotZero()\n    returns (bool success)\n  {\n    contractBalance += msg.value;\n    LogDeposit(msg.value);\n    return true;\n  }\n\n  modifier depositNotZero() {\n    require(msg.value > 0);\n    _;\n  }\n\n  modifier validWorkerAddress(address _worker) {\n    require(_worker != 0);\n    _;\n  }\n\n  modifier isNewWorker(address _worker) {\n    require(workerMapping[_worker] == false);\n    _;\n  }\n\n  modifier isExistingWorker(address _worker) {\n    require(workerMapping[_worker] == true);\n    _;\n  }\n\n  modifier isValidRewardAmount(uint _reward) {\n    require(_reward != 0);\n    _;\n  }\n\n  modifier sufficientFunds(uint _reward) {\n    require(contractBalance > _reward);\n    _;\n  }\n}\n",
  "sourcePath": "/Users/nikhilwins/Desktop/ethtask/contracts/contracts/Organization.sol",
  "compiler": {
    "name": "solc",
    "version": "0.4.18+commit.9cf6e910.Emscripten.clang"
  },
  "schemaVersion": "1.0.1",
  "updatedAt": "2017-12-21T03:46:22.501Z"
}